:020000040800F2
:1000000000300020712500087D2400087F240008AE
:1000100000000000000000000000000000000000E0
:100020000000000000000000000000008124000823
:100030000000000000000000832400088524000860
:10004000C125000800000000C1250008C1250008E6
:10005000C12500089D240008C1250008C12500080D
:10006000000000008D240008C1250008C1250008FB
:10007000C1250008C1250008C125000800000000B6
:10008000C12500080000000000000000C125000894
:1000900000000000C1250008C1250008C125000896
:1000A00000000000C125000800000000C125000874
:1000B000C125000800000000000000000000000052
:1000C0000023C25C0133002AFBD1581E7047000098
:1000D00003B47146490840004900095E49008E4456
:1000E00003BC7047002243088B4274D303098B4240
:1000F0005FD3030A8B4244D3030B8B4228D3030CF8
:100100008B420DD3FF22090212BA030C8B4202D399
:100110001212090265D0030B8B4219D300E0090AC1
:10012000C30B8B4201D3CB03C01A5241830B8B42CA
:1001300001D38B03C01A5241430B8B4201D34B03B3
:10014000C01A5241030B8B4201D30B03C01A524118
:10015000C30A8B4201D3CB02C01A5241830A8B429D
:1001600001D38B02C01A5241430A8B4201D34B0286
:10017000C01A5241030A8B4201D30B02C01A5241EA
:10018000CDD2C3098B4201D3CB01C01A524183099E
:100190008B4201D38B01C01A524143098B4201D3D8
:1001A0004B01C01A524103098B4201D30B01C01A03
:1001B0005241C3088B4201D3CB00C01A524183087D
:1001C0008B4201D38B00C01A524143088B4201D3AA
:1001D0004B00C01A5241411A00D20146524110460A
:1001E0007047FFE701B5002000F0F0F802BDC046FF
:1001F0000029F7D076E7704703460B437FD40022EF
:1002000043088B4274D303098B425FD3030A8B42AA
:1002100044D3030B8B4228D3030C8B420DD3FF2214
:10022000090212BA030C8B4202D31212090265D0E2
:10023000030B8B4219D300E0090AC30B8B4201D395
:10024000CB03C01A5241830B8B4201D38B03C01ADC
:100250005241430B8B4201D34B03C01A5241030B53
:100260008B4201D30B03C01A5241C30A8B4201D304
:10027000CB02C01A5241830A8B4201D38B02C01AAF
:100280005241430A8B4201D34B02C01A5241030A26
:100290008B4201D30B02C01A5241CDD2C3098B420B
:1002A00001D3CB01C01A524183098B4201D38B0188
:1002B000C01A524143098B4201D34B01C01A52412B
:1002C00003098B4201D30B01C01A5241C3088B4270
:1002D00001D3CB00C01A524183088B4201D38B005B
:1002E000C01A524143088B4201D34B00C01A5241FD
:1002F000411A00D201465241104670475DE0CA0FD4
:1003000000D04942031000D34042534000229C4693
:1003100003098B422DD3030A8B4212D3FC2289019D
:1003200012BA030A8B420CD3890192118B4208D373
:10033000890192118B4204D389013AD0921100E0D5
:100340008909C3098B4201D3CB01C01A52418309E9
:100350008B4201D38B01C01A524143098B4201D316
:100360004B01C01A524103098B4201D30B01C01A41
:100370005241C3088B4201D3CB00C01A52418308BB
:100380008B4201D38B00C01A5241D9D243088B4211
:1003900001D34B00C01A5241411A00D201466346B4
:1003A00052415B10104601D34042002B00D5494218
:1003B000704763465B1000D3404201B5002000F057
:1003C00005F802BD0029F8D016E770477047C0460F
:1003D000002B11D1002A0FD1002900D1002802D012
:1003E0000021C943080007B4024802A14018029046
:1003F00003BDC046D9FFFFFF03B4684601B50298AC
:1004000003F0FCFA019B9E4602B00CBC7047C0464C
:1004100010B5002903D100F007F8203002E00800F1
:1004200000F002F810BDC0461C2101231B049842B5
:1004300001D3000C10391B0A984201D3000A083975
:100440001B09984201D30009043902A2105C40182C
:100450007047C046040302020101010100000000D0
:100460000000000010B5064C2378002B07D1054B87
:10047000002B02D0044800E000BF0123237010BD10
:100480006800002000000000943B0008044B10B5F9
:10049000002B03D00349044800E000BF10BDC04654
:1004A000000000006C000020943B0008BFF34F8F59
:1004B000034B044ADA60BFF34F8FC046FDE7C046E6
:1004C00000ED00E00400FA0570B588B003AC14221A
:1004D0000021200002F0E6F91F4B596B0422114362
:1004E0005963596B0A400092009A5A6B2026324396
:1004F0005A635A6B32400192019A5A6B01252A4382
:100500005A635B6B2B400293029B80239B010393F6
:10051000124B04932100124800F0F4FF0396049557
:10052000002305930693A026F6052100300000F075
:10053000E9FF022303930B4B049305952100300040
:1005400000F0E0FF00220121052000F0D9FE052087
:1005500000F0DAFE08B070BD00100240000011107B
:10056000000800500000211000B583B0094A916BCB
:10057000012319439163926B13400193019B002265
:100580000021092000F0BCFE092000F0BDFE03B0F0
:1005900000BDC04600100240F0B5C64600B582B0AE
:1005A0000190134F3888134E82009046B2580023B2
:1005B00011490C684D68A41A9D410C604D6042467B
:1005C000019B9351019A0023A4185D410C604D607A
:1005D00001309621FFF7F6FE398096220023200095
:1005E0002900FFF7F5FE02B080BCB846F0BDC0465A
:1005F00092000020940000208800002010B5040024
:1006000001F0E0FF2821FFF7DDFEFA31601805D484
:1006100080235B01984202DB014800E0002010BD0E
:10062000FF0F000072B6FEE700B585B00C22002176
:1006300001A802F037F91948194B03608023DB0544
:10064000436000238360C36080221206026104229B
:100650004261037643768376033AC2611F32835444
:10066000436283620C3283540363436310328354C6
:10067000C36400F00DFA00280BD101A9094B0193C6
:1006800001234B60054800F083FB002803D105B02F
:1006900000BDFFF7C7FFFFF7C5FFC046DC03002022
:1006A000002401401000001010B50C480C4B0360F2
:1006B000E1235B02436000238360C36003610C227B
:1006C00042618361C36103624362836201F09EFE03
:1006D000002800D110BDFFF7A5FFC046EC020020A6
:1006E0000044004010B58CB005AC1C220021200055
:1006F00002F0D8F814220021684602F0D3F812491B
:100700000B6807229343063A13430B60059280233C
:100710005B020693200001F0ABF800280FD1684679
:1007200007230093063B0193002302930393049352
:10073000012101F029FA002803D10CB010BDFFF708
:1007400071FFFFF76FFFC04600200240F0B5DE46A4
:1007500057464E464546E0B59BB000F069F9FFF7B5
:10076000C1FFFFF7B1FEFFF7FFFEFFF75DFFFFF7E9
:100770009BFF34E001AC854B220023CB23C21968D8
:1007800011609B8893802000FFF79AFC82B280481A
:100790000A23210001F053FD7E4B00221A7022E053
:1007A000002829D17C4B1B78052B25D89B007B4A40
:1007B000D3589F46784B02221A701DE0764B0322D5
:1007C0001A7019E0744B02221A7015E0724B012264
:1007D0001A7011E0FFF76AFE6F4B01221A706D4B21
:1007E0001B78002BC6D1802189016D4800F068FF7D
:1007F0006C4B1B78012BD3D06A4B1870664B1A7860
:10080000052AECD89300684AD3589F46A0200022BE
:100810002021C00500F05BFF642000F027F9DEE72F
:10082000A02001222021C00500F051FF5F4C2000D4
:1008300000F07EFC01277F423900200000F048FADA
:10084000200000F0A1FA0500200000F0EBFC2800D9
:10085000FFF7A2FE81462800FFF7D0FE8046544CE9
:10086000200068435349FFF73DFC060048466043BB
:100870005049FFF737FC8346404660434D49FFF738
:1008800031FC82464C4901AC33002A00200001F0C3
:100890009BFF2000FFF714FC82B23D4E3B0021007D
:1008A000300001F0CCFC45495B464A46200001F08F
:1008B0008BFF2000FFF704FC82B23B0021003000D8
:1008C00001F0BDFC3E4953464246200001F07CFF4A
:1008D0002000FFF7F5FB82B23B002100300001F061
:1008E000AEFC384B9D4206D92B4B05221A70642072
:1008F00000F0BCF873E7FA23DB009D4217D9324BB6
:100900001B68002B04D100F0ABF82F4B1860EEE70A
:1009100000F0A6F82C4B1B68C01A2C4B9842E6D965
:100920001D4B04221A70284B00221A60DFE7264B69
:1009300000221A60DBE7A0202021C00500F0CDFED8
:10094000FA20400000F092F849E7A0200022202180
:10095000C00500F0BCFE01231D490D485B42092281
:1009600001F06DFCC82000F081F838E7A0202021BC
:10097000C00500F0B2FE0123164905485B4207227C
:1009800001F05DFCC82000F071F828E7AC3B0008DE
:10099000EC0200209100002090000020383C00086C
:1009A0000008005000000020503C0008DC0300203C
:1009B000E40C0000FF0F0000C03B0008E03B000813
:1009C000003C0008B80B00008400002087130000E2
:1009D000243C0008303C000810B50400114B197885
:1009E000002901D1012010BDFA208000FFF77AFB19
:1009F00001000D4B1868FFF775FB00F091FC002813
:100A00000DD1032C01D90120EDE701300022210096
:100A1000404200F075FC054B1C600020E3E701201C
:100A2000E1E7C0460100002008000020040000208B
:100A300010B50320FFF7D0FF041E02D001242000D0
:100A400010BD00F06DFEFAE7034B1B78034A1168F6
:100A50005B1813607047C04601000020400400206E
:100A6000014B18687047C0464004002070B5040070
:100A7000FFF7F6FF0500631C02D0044B1B78E41857
:100A8000FFF7EEFF401BA042FAD370BD010000202B
:100A900030B583B0040000230193002800D105E1A4
:100AA000836D002B12D023689A68D2001BD49968FA
:100AB0007F4A1140802252050A439A607D4B186894
:100AC0007D49FFF70FFB4000019009E000F040FE78
:100AD0000023E3655422A354E5E7019B013B019306
:100AE000019B002BF9D123689A68D20000D59DE0C4
:100AF000A26D10210A43A265E26D0F390A43E26537
:100B000001209A6804210D001540114200D00125F2
:100B1000A26DD20600D5C2E0002D00D0BFE0A26DCC
:100B200066490A400631FF310A43A2659A68D20736
:100B300052D4A268217E89030A43617EC9030A4315
:100B4000A57E69030A43216B002901D08021490158
:100B50000A43E1680A432169002969DB802189038E
:100B60000A432C21615C49000A432021615C012970
:100B700061D0616A002905D0E0256D002940A56A91
:100B800029430A43D9684E4D29400A43DA60636815
:100B90009B0F9B07E26C1A433C21615C012959D0F1
:100BA00021680B69474D2B4013430B616368C022DA
:100BB0001206934210D08022D20593420CD080229C
:100BC0001206934208D040490A68404D2A40F02559
:100BD000AD032B4013430B602168636B4A69072503
:100BE000AA4313434B612168A26B4B696935AB4340
:100BF000120113434B612369002B35D12268916A9E
:100C0000103B0B43936223685A6907231340626BBE
:100C10009A423BD0A36D12229343023A1343A36539
:100C2000E36D0F3A1343E36501203DE0002068E7E0
:100C30004900490894E7002D03D1802149020A4365
:100C400097E7A16D20252943A165E16D1F3D29434B
:100C5000E1658EE7216C0B43616C0B43A16C0B4388
:100C6000134301221A439BE7802292039342CAD185
:100C700021688B6AE369013B9B001C221A40102308
:100C80005B429340226E13438B62BCE70023E36513
:100C9000A36D03229343023A1343A36504E0A36DBB
:100CA00010221343A365012003B030BD0120FBE7F0
:100CB000E8FFFF6F08000020400D0300FDFEFFFF6E
:100CC0000102DEFF02FCFF1F08270140FFFFC3FFF8
:100CD000F8B504000D004669082E04D00368DB68EF
:100CE000DB0719D40426FFF7BBFE070023681A6848
:100CF000164217D16B1CF9D0FFF7B2FEC01BA842F9
:100D000001D8002DF2D1A36D04221343A36554230F
:100D10000022E254032029E0836D202213438365DF
:100D2000012023E0A16D802292000A43A265D968C8
:100D3000C0221201114213D1A27E002A10D11A68DA
:100D400012070DD59A68520711D45A680C218A43AC
:100D50005A60A36D0B4A13400432FF321343A3655C
:100D6000207E00280CD123680C221A60F8BDA36DE8
:100D700020221343A365E36D1F3A1343E365EFE7B6
:100D80000020F3E7FEFEFFFF0368186C70470000C9
:100D9000F0B583B004000023019305695433C35CAC
:100DA000012B00D121E154230122C2540068836841
:100DB000033216001E401A4209D0A36D1C321343A1
:100DC000A365012054230022E25403B0F0BD4B6818
:100DD000022B00D1D5E080221206954225D0844A0C
:100DE000954222D0226E1F271F400F25BD40AA43E7
:100DF0000B685D022FD19B0E1F261E40BE40324362
:100E000022664D68AB080133E269934213D80E683D
:100E1000826A1F231D40103B1F00AF40BA43B60E2D
:100E20003340AB401343836205E00B68826A5B0288
:100E30005B0A1343836220680B688D6842691B025A
:100E40009A432B406B4D2B40134343610B68002B9F
:100E50005FDB0020B6E7DD07D0D49D072FD45D0708
:100E60002FD41D072FD4DD062FD49D062FD45D0669
:100E70002FD41D062FD4DD052FD49D052FD45D055D
:100E80002FD41D052FD4DD042FD49D042FD45D0451
:100E90002FD41D042FD4DD032FD49D032FD45D0345
:100EA0002FD41D032FD4DD022FD49D022FD48025F3
:100EB000ED031E002E402B42A0D016269EE70126F1
:100EC0009CE702269AE7032698E7042696E705267C
:100ED00094E7062692E7072690E708268EE709267C
:100EE0008CE70A268AE70B2688E70C2686E70D267C
:100EF00084E70E2682E70F2680E710267EE711267C
:100F00007CE712267AE7132678E7142676E715267B
:100F100074E7394A1168C02212040A4037488342F4
:100F200004D0374883421FD000204BE70802F8D492
:100F300080231B04134330490A683248024013439C
:100F40000B60314B18683149FFF7CCF843001B1890
:100F50009B000133019302E0019B013B0193019B44
:100F6000002BF9D100202DE749023CD48023DB037C
:100F7000134321490A682348024013430B600020B1
:100F800020E780231B069D4202D0194B9D4205D1CC
:100F90000B68826A5B025B0A9A4382620B68002BD1
:100FA00001DB00200EE7144A126814498B4204D07A
:100FB00013498B420CD0002004E78023DB031A4046
:100FC0000D490B680F4803401A430A600020F9E6F8
:100FD00080231B041A4008490B680A4803401A433F
:100FE0000A600020EEE60020ECE60220EDE6C046B6
:100FF0000400008000FFFF7F08270140000200A4DA
:10100000000400A8FFFF3FFF08000020400D030080
:1010100070B50400026893685B0720D593689B074E
:1010200005D493680F490B4010210B439360FFF7E1
:1010300017FD050023689B685B070ED5FFF710FDC1
:10104000401B0228F6D9A36D10221343A365E36D5C
:101050000F3A1343E365012002E0002000E0002086
:1010600070BDC046E8FFFF7F30B583B004000023A9
:10107000019303689A68D2074DD49968274A1142B0
:1010800017D19A6826490A4001210A439A60254BE4
:101090001B681B0217D5244B18682449FFF722F858
:1010A00001300190019B002B0DD0019B013B01936E
:1010B000F8E7836D102213438365C36D0F3A134322
:1010C000C365012028E0637E012B01D1002023E0CD
:1010D000FFF7C6FC050004E0FFF7C2FC401B022836
:1010E0000DD823681A68D20713D49A68D207F3D4AC
:1010F0009A680B490A4001210A439A60ECE7A36D04
:1011000010221343A365E36D0F3A1343E3650120F7
:1011100002E0002000E0002003B030BD1700008096
:10112000E8FFFF7F0827014008000020400D030072
:1011300010B5040003689B685B0724D45423C35C88
:10114000012B22D054230122C254FFF78DFF002827
:1011500015D1A26D0E4B1A4080235B001343A3658B
:101160000023E36522681C2111605422A3542268E5
:10117000936808490B4004210B43936004E0542317
:101180000022E25400E0022010BD0220FCE7C0462D
:10119000FEF0FFFFE8FFFF7F70B5040003689A6868
:1011A000022108001040114200D001209A68D207A5
:1011B00031D5002831D1996805220A40012A09D089
:1011C000A36D10221343A365E36D0F3A1343E36548
:1011D000012021E09A6812490A4002210A439A60DC
:1011E000236803221A60FFF73BFC050023689B6815
:1011F000DB070ED5FFF734FC401B0228F6D9A36DA0
:1012000010221343A365E36D0F3A1343E3650120F6
:1012100002E0002000E0002070BD0020FCE7C04696
:10122000E8FFFF7F10B504005423C35C012B17D0E7
:1012300054230122C254FFF7EBFE002803D05423AD
:101240000022E25410BD2000FFF7A6FF0028F6D1CF
:10125000A36D044A13400432FF321343A365EEE743
:101260000220EFE7FEFEFFFF70B5002811DB8308C8
:10127000134DC0339B005C5903221040C000FC3268
:1012800016008640B44389010A40824022435A51E5
:1012900070BD0F230340083B9B0806339B00094A9F
:1012A000944663445C6803221040C000FC32150081
:1012B0008540AC4389010A40824022435A60E7E7F7
:1012C00000E100E000ED00E0013880235B0498427B
:1012D0000FD2094A50600948036A1B021B0AC02149
:1012E00009060B4303620023936007331360002059
:1012F00070470120FCE7C04610E000E000ED00E090
:1013000010B5FFF7B1FF10BD002805DB1F2202401A
:1013100001239340014A13607047C04600E100E09A
:1013200010B5FFF7D1FF10BD10B504000368FF2012
:10133000184008381421FEF7D5FE236C9B08064A96
:10134000944663449B006364044BA3641C231840CD
:101350001B3B8340E36410BD008200108008024004
:101360004268FF231340064A9A1892000265054A14
:101370004265013B03221A40012393408365704775
:101380003F8200104009024070B5041E4DD0056830
:10139000274BE8181421FEF7A5FE800020642523C2
:1013A0000222E2542B68234A13402B6021680A680A
:1013B000A368E06803432069034360690343A069AD
:1013C0000343E0690343206A034313430B60200097
:1013D000FFF7AAFFA2688023DB019A4218D0616858
:1013E000626CFF230B401360A36CE26C5A6063686D
:1013F000013B032B0FD9002323656365A3650023FD
:10140000E36325220121A154013AA354002070BDB9
:1014100000236360E3E72000FFF7A2FF236D0022B3
:101420001A60636DA26D5A60E9E70120EFE7C046DC
:10143000F8FFFDBF0F80FFFF70B5314B19680468DE
:101440002568026C1C23134004229A40114216D0D6
:101450006A0714D523689B0603D4236804229343A8
:101460002360274C6368026C1C21114004228A40CF
:1014700013436360036B002B00D0984770BD0222BA
:101480009A4011421CD0AA071AD523689B0606D49D
:1014900023680A22934323602523093AC254184C37
:1014A0006368026C1C21114002228A40134363606E
:1014B00024230022C254C36A002BDFD09847DDE703
:1014C00008229A401142D9D02D07D7D523680E2281
:1014D000934323600A4C6268036C1C21194001236A
:1014E0001D008D402A436260C36325228354233349
:1014F0000022C254436B002BC0D09847BEE7C046C1
:1015000000000240F0B5D6464F464646C0B500231F
:101510003BE0052500E00025A5402C003C43634D41
:101520001832920054518022AF584A46D2433D00AF
:101530004C46A5434C68E40302D53D004C46254388
:101540005A4C8027E551842567593D0015404C6869
:10155000A40302D53D004C462543544C8427E55155
:1015600027683D0015404C68E40202D53D004C461A
:1015700025434E4C256065682A404C68A40201D57D
:101580004A462A43494C626001330C682200DA4023
:1015900000D186E001229A4026001640B14614424E
:1015A000F2D04C68022C01D0122C18D1DD0808357D
:1015B000AD002C58A44607271F40BF000F24A246A9
:1015C0002600BE40B04666464446A643B4460C6973
:1015D000564626403400BC40664634432C500468CE
:1015E000A4465D000324A2462700AF40B846FF434F
:1015F00066464446A643B4464C68564626403400E8
:10160000AC406646344304604C68661E012E03D924
:10161000112C01D0122C12D184683C40A446CC6815
:10162000AC40664634438460446894434A68120977
:1016300094460122664632409A40224342604A68FC
:10164000032A05D0C4683C408A68AA402243C2608D
:101650004A68D20098D59A0814001834A400134D93
:10166000675903241C40E4000F25A540AF43A02583
:10167000ED05A84200D14EE70D4DA8420BD00D4D0F
:10168000A8420AD00C4DA84209D00C4DA84200D166
:101690003FE7062540E701253EE702253CE7032515
:1016A0003AE7E0BCBA46B146A846F0BD0018024091
:1016B0000004005000080050000C005000140050BE
:1016C00003690B4201D0012070470020FCE7002A8B
:1016D00001D0816170478162FCE7426913000B40D1
:1016E0001B0491430B4383617047704770470000B0
:1016F00010B50400094BDB68184204D1074B1B6985
:10170000234205D110BD054BD860FFF7EEFFF5E78A
:10171000024B1C612000FFF7E9FFF3E700180240CD
:1017200082B00A4B196C012211431964196C0A40EA
:101730000092009ADA6B802149050A43DA63DB6B79
:101740000B400193019B02B07047C046001002405D
:1017500030B58FB004001422002109A801F0A2F8CE
:101760001C22002102A801F09DF82268244B9A4215
:1017700001D00FB030BD2023029302A800F0F2FA8E
:10178000002836D11F4B1A6C802149030A431A6482
:101790001A6C0A400092009A596B01221143596356
:1017A0005B6B1A400192019B09A9102309930D3B21
:1017B0004B6000258D60A020C005FFF7A3FE1248F6
:1017C000124B0360052343608560C5607B33036172
:1017D000803343618023DB008361C56180235B012B
:1017E0000362FFF7D1FD002806D1074B23659C62F9
:1017F000BFE7FEF717FFC5E7FEF714FFF5E7C046A2
:101800000024014000100240800300200800024034
:1018100010B588B004001422002103A801F042F89A
:101820002268114B9A4201D008B010BD0F4BDA6B01
:10183000802189020A43DA63DA6B0A400192019A35
:10184000596B0122114359635B6B13400293029B56
:1018500003A90C2303930A3B4B600A61A020C00537
:10186000FFF750FEE0E7C046004400400010024091
:1018700070B5041E00D139E10368DB072CD5A14BFC
:101880009A6838231340082B22D0436880225202E2
:1018900093422ED0A022D202934231D0994B1A68A3
:1018A00099490A401A601A6898490A401A606368A0
:1018B000002B31D0FFF7D4F80500924B1B689B0337
:1018C0000AD4FFF7CDF8401B6428F6D903200EE1B7
:1018D0004368002B00D10BE123689B0747D5894B58
:1018E0009B6838221A4261D1E368002B22D1012083
:1018F000FDE0844A116880235B020B431360D6E746
:10190000804B19688022D2020A431A60196880222B
:1019100052020A431A60CAE7FFF7A2F80500794BA2
:101920001B689B03D8D5FFF79BF8401B6428F6D9AA
:101930000320DCE0734B5A6875490A40616909026B
:101940000A435A601A6873490A4021690A431A60B7
:101950001B68DB0A07221A406F4BD3406F4A1360A3
:101960006F4B1868FFF738F8002800D0C2E02368F2
:101970001B0757D5634B9A6838231340182B4ED05A
:10198000A369002B77D05F4A136E01210B431366C6
:10199000FFF766F805005B4B1B6E9B0742D4FFF711
:1019A0005FF8401B0228F6D90320A0E0E368002B73
:1019B00022D0544A136857490B4021690B431360E6
:1019C000116880235B000B431360FFF749F80500A3
:1019D0004C4B1B685B0506D4FFF742F8401B0228FE
:1019E000F6D9032083E047494B68494A13406269AE
:1019F000120213434B60BAE7424A136849490B404D
:101A00001360FFF72DF805003E4B1B685B05AED554
:101A1000FFF726F8401B0228F6D9032067E0A369E8
:101A2000002B69D023685B0768D5364B9A6838234A
:101A30001340202B32D0A368012B34D0052B38D093
:101A4000304BDA6D01218A43DA65DA6D03318A435E
:101A5000DA65A368002B38D0FFF702F80400294BA1
:101A6000DB6D9B072FD4FEF7FBFF001B2E4B98422C
:101A7000F5D903203BE0234A136E01218B43136603
:101A8000FEF7EEFF05001F4B1B6E9B07CAD5FEF746
:101A9000E7FF401B0228F6D9032028E0A368002BAB
:101AA0002ED0002023E0174AD36D01210B43D365CC
:101AB000CFE7144BDA6D04210A43DA65DA6D033996
:101AC0000A43DA65C5E7002011E0FEF7C9FF04000C
:101AD0000C4BDB6D9B0707D5FEF7C2FF001B124BBB
:101AE0009842F5D9032002E0002000E0012070BDFB
:101AF0000120FCE70120FAE70120F8E70020F6E7E3
:101B00000120F4E700100240FFFFFEFFFFFFFBFF94
:101B1000FF80FFFFFFC7FFFF006CDC020800002012
:101B200004000020FFFEFFFF88130000144B9B6899
:101B300038221A4207D1124B1A68D20A07231340DF
:101B40001048D84070470E4B9A6838231340082B32
:101B500010D00B4B9A6838231340202B0CD0084B25
:101B60009A6838231340182B01D00020EAE7FA20A6
:101B7000C001E7E70348E5E780200002E2E7C0464E
:101B800000100240006CDC0270B504000D0000285B
:101B900000D1A4E0544B1A68072313408B4221D391
:101BA00023689A0710D55B0707D550498A68504BC0
:101BB0001A40B0231B0113438B604C4A93684D4974
:101BC0000B40E1680B4393602368DB074CD56368E7
:101BD000012B1ED0002B39D1444A126852051CD467
:101BE000012064E0404A136807218B432B431360B4
:101BF000FEF736FF06003C4B1A6807231340AB4242
:101C0000CED0FEF72DFF801B3B4A9042F3D9032034
:101C10004DE0364A1268920363D534498A6807203A
:101C2000824313438B60FEF71BFF06002F4B9B681C
:101C300038221A406368DB009A4215D0FEF710FF85
:101C4000801B2D4B9842F1D9032030E0032B05D0A7
:101C5000264AD26D9207E0D4012028E0234A126E72
:101C60009207DAD4012022E01F4B1A6807231340A1
:101C7000AB421DD823685B0706D51C4A93681F49F1
:101C80000B4021690B439360FFF750FF174B9A6895
:101C9000120A0F2313401A4A9B009A581F2313401D
:101CA000D840184B1860184B1868FEF795FE70BDA9
:101CB0000D4A136807218B432B431360FEF7D0FEB8
:101CC0000600094B1A6807231340AB42D2D0FEF737
:101CD000C7FE801B084B9842F3D90320E7E7012099
:101CE000E5E70120E3E7C046002002400010024083
:101CF000FF84FFFFFFF0FFFF88130000FF8FFFFF4F
:101D0000A03C0008080000200400002010B5FFF7E8
:101D10000DFF074B9A68120A0F231340054A9B00D8
:101D20009A581F231340D840034B186010BDC0467B
:101D300000100240A03C00080800002010B5FFF78A
:101D4000E5FF064B9A68120B07231340044A9B00D9
:101D50009A581F231340D84010BDC04600100240BF
:101D6000803C000870B582B0040003685B0650D563
:101D7000424BDB6BDB0035D4404BDA6B80214905ED
:101D80000A43DA63DB6B0B400193019B01253B4B5C
:101D9000D96DC02292000B001340114235D0A269C8
:101DA0009A420DD0354AD36D35490B40D06D802114
:101DB00049020143D165D16D32480140D165D365F7
:101DC000DB0711D42D4AD36D2D490B40A1690B437C
:101DD000D3650020012D1DD1284AD36B2A490B4021
:101DE000D36317E00025D2E7FEF73AFE0600234B47
:101DF000DB6D9B0707D4FEF733FE801B234B984215
:101E0000F5D9032002E0002000E000200028E1D105
:101E1000D8E700202368DB0706D5184A536D032155
:101E20008B43A1680B43536523689B0706D5134A70
:101E3000536D17490B40E1680B43536523689B06BC
:101E400006D50E4A536D9B009B0861690B43536591
:101E500023685B0706D5094A536D0E490B4021697B
:101E60000B43536523681B0606D5044A1368E0211B
:101E70008B4361680B43136002B070BD00100240D9
:101E8000FFFCFFFFFFFFFEFFFFFFFFEF88130000D7
:101E9000FFCFFFFFFF3FFFFF30B5EFF310840122BC
:101EA00082F3108801680B68124D2B400B6084F39D
:101EB0001088EFF3108182F31088026893680E4C4B
:101EC0002340936081F31088C36E012B06D08C23CE
:101ED0002022C2500023C366436730BDEFF3108158
:101EE00083F31088026813681024A343136081F3FE
:101EF0001088ECE7DFFEFFFFFEFFFFEF10B50400E8
:101F000083680269134342691343C269134301683A
:101F10000A686248024013430B60226853686049B4
:101F20000B40E1680B435360A369226A1A4321689E
:101F30008B685C48034013438B602268D36A0F218F
:101F40008B43616A0B43D3622368574A934230D074
:101F5000564A93423ED01023E069802212029042FA
:101F600042D0042B00D189E07BD8002B00D17FE048
:101F7000022B74D14E4B1B685B09072119400131BC
:101F80004C48FEF7AFF8626A4B4B5200D15AFEF74D
:101F9000A9F861684B08C018FEF7A4F80200103ACF
:101FA000464B9A426FD823680004000CD86000208A
:101FB0006AE03F4B5A6D03231340022B0CD005D827
:101FC000002B0BD0012B0BD10333C5E7032B09D119
:101FD0000533C1E70023BFE70223BDE70023BBE7CA
:101FE0001023B9E71023B7E7042B35D02AD8002BEC
:101FF0002CD0022B24D12E4B1B685B0907211940E2
:1020000001312C48FEF76EF8626A2B4B5200D15A10
:10201000FEF768F8400061684B08C018FEF762F8E8
:102020000200103A254B9A422BD882B20F239A43D2
:102030004008083B034013432268D360002023E09C
:10204000012021E0082BDFD001201DE0FFF776FE04
:102050000028D9D1002017E0FFF768FDF8E701203C
:1020600012E0082B02D1802000028CE701200BE057
:10207000FFF764FE002886D1002005E0FFF756FD3B
:10208000F8E7012000E0012001236A22A352023A6E
:10209000A35200236367A36710BDC046F369FFCF57
:1020A000FFCFFFFFFFF4FF11003801400044004064
:1020B00000100240006CDC02683C0008EFFF0000EA
:1020C000836A1B0706D5026853682C490B40816B55
:1020D0000B435360836ADB0706D5026853682849BF
:1020E0000B40C16A0B435360836A9B0706D50268A5
:1020F000536824490B40016B0B435360836A5B07B1
:1021000006D50268536820490B40416B0B4353606E
:10211000836ADB0606D5026893681C490B40C16BD5
:102120000B439360836A9B0606D50268936818493F
:102130000B40016C0B439360836A5B060BD502680E
:10214000536814490B40416C0B435360426C80232D
:102150005B039A420AD0836A1B0606D5026853685D
:102160000D490B40C16C0B435360704702685368C4
:102170000A490B40816C0B435360ECE7FF7FFFFF84
:10218000FFFFFDFFFFFFFEFFFFFFFBFFFFEFFFFF76
:10219000FFDFFFFFFFFFEFFFFFFFF7FFFFFF9FFFE7
:1021A000F8B5CE46474680B506000D0017009946A3
:1021B000089B98463368DC692C40641B63425C4191
:1021C000BC4233D143460133F4D0FEF749FC4B46C1
:1021D000C01A40452FD84346002B2ED032681368D2
:1021E0005B07E7D5802DE5D0402DE3D0D3691B07F1
:1021F00010D4D3691B05DDD580231B011362300089
:10220000FFF74AFE90232022F2500C3B0022F254AA
:1022100003200CE0082414623000FFF73DFE9023F9
:10222000F4500C3B0022F254012000E00020C0BC1E
:10223000B946B046F8BD0320F9E70320F7E7F0B54B
:10224000C64600B582B004000D0090461E008823EB
:10225000C358202B65D1002968D0002A68D0826835
:1022600080235B019A4204D10369002B01D1CB0783
:1022700060D490230022E250083B2132E250FEF766
:10228000EFFB070054234246E2520233E252A268B7
:1022900080235B019A4202D00023984618E023690C
:1022A000002B29D00023984612E088232022E250F8
:1022B000032037E043461B882268DB05DB0D936271
:1022C00002239C46E0445623E25A013A92B2E2527B
:1022D0005623E35A002B12D000963B0000228021A7
:1022E0002000FFF75DFF0028DFD1002DE2D02A7823
:1022F00023689A620135E6E7A8460025E8E70096DC
:102300003B00002240212000FFF74AFF002803D1B4
:1023100088232022E25005E088232022E250032077
:1023200000E0022002B080BCB846F0BD0120F9E711
:102330000120F7E70120F5E730B583B004009023D2
:102340000022C250FEF78CFB050023681B681B07A8
:1023500010D423681B685B072BD420238822A3504A
:102360000432A3500023E3662367083AA3540020F5
:1023700003B030BD8021234B00930300002289036A
:102380002000FFF70DFF0028E3D0EFF310810123B9
:1023900083F310882268136880208343136081F3DD
:1023A000108888232022E250043B0022E2547D382A
:1023B000DEE78021134B00932B000022C90320008D
:1023C000FFF7EEFE0028C8D0EFF31080012282F361
:1023D000108821680B680C4D2B400B6080F310882F
:1023E000EFF3108082F3108821688B6893438B6031
:1023F00080F310888C231F32E250083B0022E25405
:102400000320B5E7FFFFFF01DFFEFFFF10B5041E4D
:1024100030D08823C358002B22D088232422E250B6
:102420002268136801218B431360A36A002B1DD11E
:102430002000FFF763FD012811D0226853680E4980
:102440000B405360226893682A218B439360226873
:10245000136829390B4313602000FFF76DFF10BD8F
:1024600084330022C254FFF7D3F9D6E72000FFF7E8
:1024700027FEDDE70120F2E7FFB7FFFFFEE7FEE7FB
:102480007047704710B5FEF7DFFA10BD10B502486F
:10249000FEF7D2FF10BDC0468003002010B5022019
:1024A000FFF726F910BD0120704710B500F050FA73
:1024B000162303600120404210BD10B5012149429E
:1024C000FFF7F3FFFEE770B50C001600002504E0EF
:1024D00000E000BF207001350134B542F8DB300068
:1024E00070BD70B51600002405E04D1C087800E0B2
:1024F00000BF01342900B442F7DB300070BD012079
:102500004042704780239B014B60002070470120B0
:10251000704700207047000010B503000C4A0D49B9
:10252000521A0D490968002907D00B490868C318D9
:10253000934206D8084A136010BD0749074808604F
:10254000F3E700F005FA0C23036001204042F3E7B3
:102550000030002000040000440400209805002002
:10256000024B802212059A607047C04600ED00E0E1
:102570000D488546FFF7F4FF002103E00B4B5B5845
:10258000435004310A480B4B42189A42F6D30A4A88
:1025900002E0002313600432084B9A42F9D300F0A2
:1025A000DDF9FEF7D3F8FEE700300020F83D000823
:1025B0000000002068000020680000209405002032
:1025C000FEE70000164B70B51D682C6B002C17D170
:1025D000182000F053FA041E286305D1220052216E
:1025E000104B114800F0E2F9104B01220360104B30
:1025F0004360104B83600B2383810023026143619E
:10260000206961690C4A0D4B01F0CAF901220023CF
:1026100080185941206161614800400870BDC04682
:1026200018000020E03C0008F73C00080E33CDAB5A
:1026300034126DE6ECDE05002D7F954C2DF45158DB
:10264000002310B50400036043608360818143660A
:10265000C281036143618361190008225C3000F08C
:1026600021F90B4B246263620A4BA3620A4BE362BB
:102670000A4B23630A4B9C4205D00A4B9C4202D072
:10268000094B9C4203D12000583000F08BF910BD5B
:102690000D280008352800086D2800089928000832
:1026A00048040020B00400201805002010B5034A9B
:1026B0000349044800F06CF810BDC0460C0000202F
:1026C000D13200081C00002041680B4B10B50400FB
:1026D000994201D000F0FCFDA168084B994202D05C
:1026E000200000F0F5FDE168054B994202D0200082
:1026F00000F0EEFD10BDC04648040020B0040020EC
:102700001805002010B5094B094A04211A60094830
:102710000022FFF795FF012209210748FFF790FFEC
:10272000022212210548FFF78BFF10BD8005002013
:10273000AD26000848040020B00400201805002041
:1027400010B5024800F02FF910BDC04689050020E1
:1027500010B5024800F028F910BDC04689050020D8
:1027600010B50400FFF7ECFF236A002B02D0FFF73F
:10277000EFFF10BD044B2362044B1B68002BF6D106
:10278000FFF7C0FFF3E7C046C92600088005002018
:10279000F7B51400002600900191A5686768013F15
:1027A00004D52468002CF8D13000FEBDAB89012B84
:1027B00008D90E22AB5E013304D029000098019B9A
:1027C000984706436835EAE70EB410B500249DB07B
:1027D000029006900A481FAB07900490094804CB6A
:1027E0000590094802A9006801934C6600F066FA5A
:1027F000029B1C701DB010BC08BC03B01847C0463B
:10280000FFFFFF7F0802FFFF1800002070B50C00DB
:102810000E25495F00F074F8002803DB636D1B1878
:10282000636570BDA389024A1340A381F9E7C046DE
:10283000FFEFFFFFF8B51F008B8905000C001600A5
:10284000DB0505D50E23C95E0022022300F044F803
:10285000A389054A28001340A38132000E23E15EBC
:102860003B0000F061F8F8BDFFEFFFFF70B50C0012
:102870000E25495F00F030F80C22A35E421C03D104
:10288000044A1340A38170BD802252011343A381E7
:102890006065F8E7FFEFFFFF10B50E23C95E00F09B
:1028A00009F810BD03008218934200D170471970D7
:1028B0000133F9E7002370B5064D040008002B60D2
:1028C000FFF71DFE431C03D12B68002B00D02360B3
:1028D00070BDC0468405002070B5040008001100DA
:1028E0001A000023054D2B60FFF713FE431C03D194
:1028F0002B68002B00D0236070BDC04684050020EB
:1029000070B50400080011001A000023054D2B606B
:10291000FFF7D9FD431C03D12B68002B00D02360A7
:1029200070BDC0468405002070B504000800110089
:102930001A000023054D2B60FFF7D3FD431C03D184
:102940002B68002B00D0236070BDC046840500209A
:10295000014B18687047C0461800002070B500266B
:102960000C4C0D4D641BA410A64209D1002601F0A9
:1029700011F90A4C0A4D641BA410A64205D170BD82
:10298000B300EB5898470136EEE7B300EB58984791
:102990000136F2E7F03D0008F03D0008F43D000884
:1029A000F03D000870477047704700007FB5140085
:1029B0001A00094B05001B680E00D868074B002C55
:1029C00001D1074B1C000749019302942B0000968C
:1029D00000F0AAFC00F0F0FC18000020793D00088F
:1029E000B43D0008863D000870B505000C1E10D0EF
:1029F000043C2368002B00DAE418280000F0EAF811
:102A00001D4A1368002B05D163601460280000F094
:102A1000E9F870BDA34208D9206821188B42F3D190
:102A200019685B6809182160EEE71A005B68002BE3
:102A300001D0A342F9D911685018A0420BD12068E7
:102A40000918501811608342E0D118685B6841187A
:102A500011605360DAE7A04202D90C232B60D5E75E
:102A6000206821188B4203D119685B68091821601E
:102A700063605460CAE7C0469005002010B5034B60
:102A80000100186800F026F810BDC04618000020AC
:102A900070B50F4E0D0031680400002902D100F01E
:102AA00065FC30602900200000F060FC431C03D16D
:102AB00001256D42280070BD0323C51C9D43A8421B
:102AC000F8D0291A200000F051FC0130F2D1EFE7D4
:102AD0008C050020F7B50322CB1C93430833050077
:102AE0001F000C2B34D20C27B94233D8280000F039
:102AF00071F8374E33681C00002C2FD139002800A4
:102B0000FFF7C6FF0400431C5FD134680094009BAC
:102B1000002B4AD1002C52D023682800E3180099DA
:102B2000019300F023FC019B834248D123682800D5
:102B3000FF1A3900FFF7ACFF013040D02368DB19E2
:102B4000236033685A68002A33D1009B336019E050
:102B5000002BC9DA0C232B600020FEBD2168C91BA5
:102B600020D40B290AD9E2192760A34204D132608C
:102B700063681160536005E05A60F9E76268A34238
:102B80000ED13260280000F02DF8200007220B3013
:102B9000231D9043C21A9842DFD01B1AA350DCE7D2
:102BA0005A60EFE723006468A6E7009C636800931F
:102BB000ADE71A005B68A342FBD10023DAE70C23E0
:102BC00028002B6000F00EF8C6E70760DAE7C04681
:102BD0009005002010B50248FFF7E5FE10BDC04685
:102BE0008805002010B50248FFF7DEFE10BDC04684
:102BF00088050020F0B58E6885B01F000C003300FA
:102C000002900392BE4254D80C22885E9022D200D9
:102C100010422CD00322096923685B1A019363696F
:102C20005343019ADD0FED187B1C6D109B182A0091
:102C3000AB4201D91D001A00400527D511000298AA
:102C4000FFF748FF061E2AD0019A216900F0ABFB6E
:102C5000A289194B1A4080231343A381019B26614B
:102C6000F618266065613E00ED1A3B00A5601F0066
:102C70003A000399206800F067FB0020A3689B1BC3
:102C8000A3602368DB19236005B0F0BD029800F053
:102C90009AFB061EE2D121690298FFF7A5FE0C23DC
:102CA0000120029A40421360A28934331343A38166
:102CB000EAE73E00DCE7C0467FFBFFFFF0B59FB0D0
:102CC00002901C008B890E0015001B0611D50B69A4
:102CD000002B0ED14021FFF7FDFE3060306100284F
:102CE00005D10C23029A136001204042D4E0402316
:102CF00073610023292102AA52180B932033137009
:102D0000013102AA10335218137005942C00237855
:102D1000002B01D0252B48D1671BAC420BD03B00C8
:102D20002A0031000298FFF765FF013000D1AEE0C4
:102D30000B9BDB190B932378002B00D1A7E001221A
:102D4000532100235242079202AA5218651C06938F
:102D50000993089313701C93554F29780522380066
:102D600000F016FB6C1C069906AB00281FD1CA06A2
:102D700004D55327202202A8C01902700A0704D5DF
:102D800053272B2202A8C01902702A782A2A15D0AC
:102D90002C0000200A27DA682178651C30390929BF
:102DA00050D9002811D009920FE00134AFE7012378
:102DB000C01B83400B4325000693CDE7059A101DE9
:102DC00012680590002A37DBDA6022782E2A0CD1AF
:102DD00062782A2A3BD1059A0234111D12680591A6
:102DE000002A01DA012252425A60324D03222800A1
:102DF000217800F0CDFA06AF002806D04023401B12
:102E00008340069A013413430693217806222A4808
:102E1000651C397600F0BCFA00283FD0274B002B08
:102E200029D10722059B07339343083305930B9B56
:102E300003995B180B9369E75242DA6002220A4356
:102E40000692C2E77A432C0001205218A4E7002220
:102E50000A205A601100130001342278651C303AB0
:102E6000092A03D9002BC0D00791BEE741432C00AB
:102E700001238918F1E705AA009239003200104BAE
:102E8000029800E000BF0390039B0133CFD1B389C8
:102E90000B985B0600D527E71FB0F0BD05AA00928E
:102EA00039003200064B029800F07CF8EBE7C04690
:102EB000B53D0008BB3D0008BF3D00080000000014
:102EC000F52B0008F7B5160001938A680B690C0012
:102ED0000090934200DA13002200336043321278EC
:102EE000002A01D00133336023689B0602D5336882
:102EF000023333602268062315001D401A4227D092
:102F0000230043331B785A1E93412268920630D423
:102F1000220001990098089D4332A847013025D02E
:102F20000622236800251340042B05D13368E56889
:102F3000ED1AEB43DB171D40A3682269934201DDC4
:102F40009B1AED180026B54220D1002010E0013573
:102F5000E36832689B1AAB42D2DD2200012301995B
:102F60000098089F1932B8470130F0D10120404243
:102F7000FEBD3020E1184331087021005A1C453154
:102F80000978A218433202331170C1E722000123ED
:102F900001990098089F1A32B8470130E6D00136EF
:102FA000D1E70000F0B58BB006920A0043320793D8
:102FB000059003920A7E0C00109B782A09D8622A99
:102FC0000BD8002A00D1BAE07A490491582A00D1DE
:102FD0008EE0250042352A7022E010006338152863
:102FE000F7D8FDF775F816001F00F6FFF6FFF6FF9D
:102FF000F6FF1F00F6FFF6FFF6FFF6FF9F00360014
:103000007E00F6FFF6FFB000F6FF3600F6FFF6FF93
:10301000820025001A684235111D196013682B7053
:1030200001239EE018680968021D0D060BD506688D
:103030001A60002E03DA2D23039A764213705D4B3B
:103040000A27049318E006681A604906F1D536B2DB
:10305000EFE70868196840C9050602D4400600D5A4
:10306000B6B21960534B0A2704936F2A00D1023F6E
:103070002300002243331A706368A360002B06DB31
:1030800004212268039D8A43226033430CD0039DB0
:1030900030003900FDF7ACF8049B013D5B5C2B7000
:1030A000330006009F42F3D9082F09D12368DB07BC
:1030B00006D5626823699A4202DC3023013D2B70F9
:1030C000039B5B1B2361079B210000930598069BD4
:1030D00009AAFFF7F7FE013048D1012040420BB0AA
:1030E000F0BD202209680A43226078223249049107
:1030F000210045310A701968226840C9100602D4BF
:10310000500600D5B6B21960D30702D52023134369
:103110002360002E01D01027AAE7202223689343C2
:103120002360F8E71A680D68101D49691860136874
:103130002E0601D5196002E06D06FBD5198000232B
:10314000039D2361BFE71A68111D196015680021EE
:103150002800626800F01CF9002801D0401B606064
:10316000636823610023039A1370ACE72A00236984
:1031700006990598079DA8470130AED023689B07A4
:1031800015D4099BE0689842A9DA1800A7E7220045
:10319000012306990598079E1932B04701309CD04B
:1031A0000135E368099A9B1AAB42F0DCE9E7002598
:1031B000F7E7C046C63D0008D73D0008F7B50C222A
:1031C0008B5E05000C001A075AD44A68002A02DCFC
:1031D0000A6C002A4FDDE76A002F4CD000228021C4
:1031E0002E682A601A0049010A400B4234D0626DF1
:1031F000A3895B0706D56368D21A636B002B01D0E5
:10320000236CD21A00232800E76A216AB8470C23EE
:10321000E25E431C06D129681D292ED82B4BCB40DA
:10322000DB072AD50023636023692360D20405D518
:10323000431C02D12B68002B00D16065616B2E60AE
:10324000002918D023004433994202D02800FFF708
:10325000CBFB002363630EE001232800216AB847FB
:103260000200431CC4D12B68002BC1D01D2B01D000
:10327000162B1DD12E60002021E0402313431BE0BC
:103280000E69002EF7D00F680E60BA1B0192002263
:103290009B0700D14A69A260019B002BEBDDA36A6A
:1032A00032001F002800019B216AB847002807DC74
:1032B0004023A28913431BB20120A3814042FEBDDB
:1032C000019B36181B1A0193E6E7C0460100402017
:1032D0000B6970B505000C00002B02D100252800F9
:1032E00070BD002804D0036A002B01D1FFF738FA23
:1032F0000C22A35E002BF1D0626ED20704D49B0592
:1033000002D4A06DFFF74FFB28002100FFF756FF06
:10331000636E0500DB07E2D4A3899B05DFD4A06DB3
:10332000FFF742FBDBE700000EB417B5054C05AB19
:1033300004CB01002068019300F09CF81EBC08BC7F
:1033400003B018471800002010B5884202D98B1826
:10335000984208D300239A4207D0CC5CC45401336E
:10336000F9E78B5C8354013AFBD210BD002370B5A2
:10337000064D040008002B60FFF7CEF8431C03D174
:103380002B68002B00D0236070BDC0468405002050
:10339000C9B28218904201D10020704703788B4255
:1033A000FBD00130F6E7002310B59A4200D110BDE2
:1033B000CC5CC4540133F8E7062010B500F040FAA5
:1033C0000120FFF77AF8F7B506000C001500002978
:1033D00005D11100FFF77EFB04002000FEBD002A8E
:1033E00003D1FFF701FB2C00F7E700F049FA0700D3
:1033F000854202D84308AB42EFD329003000FFF7E3
:1034000069FB0190002801D1019CE6E72A00BD423A
:1034100000D93A0021000198FFF7C5FF21003000D4
:10342000FFF7E2FAF0E7936810B5013B9360002BD9
:1034300004DA9469A34207DB0A2905D01368581CF3
:1034400010601970080010BD00F034F90100F9E7B0
:10345000F8B506000F001400D518AC4201D10020C9
:1034600007E021783A003000FFF7DDFF0134431C0C
:10347000F3D1F8BDF0B59FB00D0016001C0002900E
:10348000002804D0036A002B01D1FFF769F96B6EA5
:10349000DB0705D4AB899B0502D4A86DFFF783FA3F
:1034A000AB891B0702D52B69002B13D12900029889
:1034B00000F042F900280DD06B6EDB0703D5012028
:1034C00040421FB0F0BDAB899B05F8D4A86DFFF753
:1034D0006BFAF4E70023292102AA52180B93203338
:1034E0001370013102AA103352181370059434007E
:1034F0002378002B01D0252B48D1A71BB4420BD039
:103500003B00320029000298FFF7A2FF013000D1F2
:10351000AEE00B9BDB190B932378002B00D1A7E0C7
:103520000122532100235242079202AA5218661C1C
:1035300006930993089313701C93594F3178052211
:103540003800FFF725FF741C069906AB00281FD131
:10355000CA0604D55327202202A8C01902700A0700
:1035600004D553272B2202A8C019027032782A2AC8
:1035700015D0340000200A27DA682178661C30391B
:10358000092950D9002811D009920FE00134AFE782
:103590000123C01B83400B4326000693CDE7059A09
:1035A000101D12680590002A37DBDA6022782E2A77
:1035B0000CD162782A2A3BD1059A0234111D126877
:1035C0000591002A01DA012252425A60354E032247
:1035D00030002178FFF7DCFE06AF002806D040233C
:1035E000801B8340069A01341343069321780622F8
:1035F0002D48661C3976FFF7CBFE002847D02B4BB1
:10360000002B29D10722059B0733934308330593E9
:103610000B9B03995B180B9369E75242DA60022215
:103620000A430692C2E77A43340001205218A4E705
:1036300000220A205A601100130001342278661C0F
:10364000303A092A03D9002BC0D00791BEE7414385
:10365000340001238918F1E705AA009239002A00F5
:10366000134B029800E000BF0390039B0133CFD1BE
:103670006B6EDB0705D4AB899B0502D4A86DFFF701
:1036800093F9AB895B0600D519E70B9819E705AAF2
:10369000009239002A00064B0298FFF783FCE3E70B
:1036A000B53D0008BB3D0008BF3D0008000000001C
:1036B00051340008F8B506000D001400002804D0AD
:1036C000036A002B01D1FFF74BF8A369A360A3891C
:1036D0001B0702D52369002B09D12100300000F01F
:1036E0002BF8002803D001256D422800F8BD23697E
:1036F0002068EFB2C01A6369EDB2834205DC210095
:103700003000FFF7E5FD0028EDD1A3680130013B53
:10371000A36023685A1C22601F706369834204D02F
:10372000A389DB07E1D50A2DDFD121003000FFF7A7
:10373000CFFD0028D9D0D6E72B4B70B5050018680F
:103740000C00002804D0036A002B01D1FFF708F811
:103750000C22A35E1A0722D4DA0607D409222A60B3
:10376000373201201343A381404270BD5A0713D55D
:10377000616B002908D023004433994202D028000D
:10378000FFF732F9002363632422A38993430022C5
:10379000626022691BB2226008221343A38122695E
:1037A000002A07D19A0501D51B0603D52100280060
:1037B00000F098F80C23E25E012113000B400A424E
:1037C0000CD00023A36063695B42A36100202369DE
:1037D0008342CAD11306C8D54023C2E7910700D45B
:1037E0006369A360F2E7C0461800002070B50400CA
:1037F0000D001F2904D9162303600120404270BD2B
:10380000C36B002B04D08A009B181A68002A08D1C9
:10381000200000F031F82A000100200000F01AF822
:10382000EDE7012A09D0511C03D1162303600120C2
:10383000E5E700212800196090470020DFE700003D
:1038400010B5034B01001868FFF7D0FF10BDC0464C
:1038500018000020002370B5064D04000800110078
:103860002B60FEF722FE431C03D12B68002B00D0F7
:10387000236070BD8405002010B5FEF714FE10BD56
:103880000B1F1B68181F002B01DA0B58C01870475C
:10389000F0B50E001D000E23C95E140097B000297C
:1038A0000CDAB2898023110019401A4214D1802306
:1038B000DB0000202960236017B0F0BD6A4600F0ED
:1038C0004BF80028EDDBF02301991B021940044B53
:1038D000C9184B425941EAE700214023E9E7C046B5
:1038E00000E0FFFFF7B502268B8905000C0033428C
:1038F00006D0230047332360236101236361F7BDB2
:103900006A4601ABFFF7C4FF009F28003900FFF7AC
:10391000E1F80C22A35E002806D19A05EFD4032219
:1039200093431E43A681E4E780221343A381019BB6
:10393000206020616761002BE1D028000E23E15E4A
:1039400000F01CF80028DAD00323A2899A43023B36
:103950001343A381D3E70000002370B5064D040094
:10396000080011002B60FEF7CDFD431C03D12B682E
:10397000002B00D0236070BD84050020002370B5AB
:10398000064D040008002B60FEF7C1FD431C03D167
:103990002B68002B00D0236070BDC046840500203A
:1039A000F0B5CE469946030C9C46130447461B0CC3
:1039B0001D000E0061460404240C80B50700100CA5
:1039C0004B436543414360432C0CC01824188C467C
:1039D000A34203D980235B029846C44449467943F5
:1039E0005643230C2D042D0C8919634424046019BB
:1039F000C918C0BCB946B046F0BDC046F0B5574680
:103A00004E464546DE46E0B504000D009246994616
:103A100083B08B4230D82DD049465046FCF7F8FC95
:103A2000290006002000FCF7F3FC331A9846203BDF
:103A300034D49B4653465A46934042461F00534651
:103A400093401E00AF423BD8AF4200D179E05B46C5
:103A5000A41BBD41002B00DA76E000220023009277
:103A6000019301235A469340019301234246934018
:103A7000009329E08242CFD90022002300920193D3
:103A80000C9B002B01D01C605D600098019903B075
:103A9000F0BCBB46B246A946A046F0BD42469B4696
:103AA00020239B1A5246DA40414613004A468A4078
:103AB000170042461F43534693401E00AF42C3D9EE
:103AC00000220023009201934346002BD8D0FB072D
:103AD00072081A4346467B080EE0AB4201D1A2426F
:103AE0000CD8A41A9D41012024196D410021013EEA
:103AF00024184D41002E06D0AB42EED9013E2419C8
:103B00006D41002EF8D1009801995B46001969417A
:103B1000002B24DB2B005A464646D3402A001C00CB
:103B2000F2405B461500002B2ADB26009E40330046
:103B300026004746BE403200801A9941009001910C
:103B40009EE7A342BCD882E74246202300219B1A6D
:103B50000022009101920122DA40019285E742465B
:103B600020239B1A2A0046469A402300F3404646EB
:103B700013432A001C00F2405B461500002BD4DAE8
:103B8000202342462F009B1B97402600DE403B002F
:103B90003343CDE7F8B5C046F8BC08BC9E46704735
:0C3BA000F8B5C046F8BC08BC9E46704753
:103BAC00427574746F6E2070726573736564210D49
:103BBC000A0000004D6F64653D524157207C204146
:103BCC0044433D256C75202D3E20256C75206D568B
:103BDC000D0A00004D6F64653D4D41207C20414431
:103BEC00433D256C75202D3E20256C75206D560DA2
:103BFC000A0000004D6F64653D4E4F495345207CD3
:103C0C00204144433D256C75202D3E20256C7520AC
:103C1C006D560D0A000000005741524E494E470D9B
:103C2C000A0000004552524F520D0A00F8070008D6
:103C3C00B4070008BC070008C4070008CC0700083C
:103C4C00D4070008D80700080C0800082008000852
:103C5C00360900084A0900086C0900080100020036
:103C6C000400060008000A000C00100020004000B0
:103C7C0080000001000000000000000000000000B7
:103C8C000000000001000000020000000300000022
:103C9C000400000000000000000000000000000014
:103CAC000000000000000000000000000000000008
:103CBC0000000000010000000200000003000000F2
:103CCC0004000000060000000700000008000000CF
:103CDC00090000005245454E54206D616C6C6F63B9
:103CEC0020737563636565646564002F5F5F772F70
:103CFC0061726D2D6E6F6E652D656162692D6763E6
:103D0C00632D787061636B2F61726D2D6E6F6E65B4
:103D1C002D656162692D6763632D787061636B2F0C
:103D2C006275696C642D6173736574732F62756948
:103D3C006C642F77696E33322D7836342F736F7530
:103D4C00726365732F6E65776C69622D6379677723
:103D5C00696E2F6E65776C69622F6C6962632F7365
:103D6C0074646C69622F72616E642E63002C206621
:103D7C00756E6374696F6E3A20006173736572744B
:103D8C00696F6E2022257322206661696C65643A26
:103D9C002066696C6520222573222C206C696E6567
:103DAC00202564257325730A00232D302B200068F1
:103DBC006C4C00656667454647003031323334350C
:103DCC00363738394142434445460030313233347A
:0C3DDC0035363738396162636465660073
:083DE80014FCFF7F0100000044
:043DF0008D04000836
:043DF400650400085A
:103DF8000101000004000000001BB70000000000E3
:103E080003000000480400201C00002000000000FF
:103E180048040020B004002018050020000000001D
:103E2800000000000000000000000000000000008A
:103E3800000000000000000000000000000000007A
:103E4800000000000000000000000000000000006A
:083E5800000000000000000062
:040000050800257159
:00000001FF
